{
  "contractName": "GameFactory",
  "abi": [
    {
      "inputs": [
        {
          "internalType": "uint256",
          "name": "",
          "type": "uint256"
        }
      ],
      "name": "deployedGames",
      "outputs": [
        {
          "internalType": "address",
          "name": "",
          "type": "address"
        }
      ],
      "stateMutability": "view",
      "type": "function"
    },
    {
      "inputs": [],
      "name": "createGame",
      "outputs": [],
      "stateMutability": "nonpayable",
      "type": "function"
    },
    {
      "inputs": [
        {
          "internalType": "address",
          "name": "_gameAddress",
          "type": "address"
        }
      ],
      "name": "joinGame",
      "outputs": [],
      "stateMutability": "nonpayable",
      "type": "function"
    },
    {
      "inputs": [],
      "name": "getDeployedGames",
      "outputs": [
        {
          "internalType": "address[]",
          "name": "",
          "type": "address[]"
        }
      ],
      "stateMutability": "view",
      "type": "function"
    },
    {
      "inputs": [
        {
          "internalType": "address",
          "name": "_player1",
          "type": "address"
        }
      ],
      "name": "getGameByPlayer1",
      "outputs": [
        {
          "internalType": "address",
          "name": "",
          "type": "address"
        }
      ],
      "stateMutability": "view",
      "type": "function"
    }
  ],
  "bytecode": "0x608060405234801561000f575f80fd5b5061134a8061001d5f395ff3fe608060405234801561000f575f80fd5b5060043610610055575f3560e01c80632389a29014610059578063657908d1146100755780637255d729146100a5578063d6ac8fd0146100af578063eae81c37146100df575b5f80fd5b610073600480360381019061006e9190610829565b6100fd565b005b61008f600480360381019061008a9190610887565b6103f9565b60405161009c91906108c1565b60405180910390f35b6100ad610433565b005b6100c960048036038101906100c49190610829565b61053f565b6040516100d691906108c1565b60405180910390f35b6100e7610734565b6040516100f49190610991565b60405180910390f35b5f8190505f73ffffffffffffffffffffffffffffffffffffffff168173ffffffffffffffffffffffffffffffffffffffff166359a5f12d6040518163ffffffff1660e01b8152600401602060405180830381865afa158015610161573d5f803e3d5ffd5b505050506040513d601f19601f8201168201806040525081019061018591906109c5565b73ffffffffffffffffffffffffffffffffffffffff16146101db576040517f08c379a00000000000000000000000000000000000000000000000000000000081526004016101d290610a4a565b60405180910390fd5b5f73ffffffffffffffffffffffffffffffffffffffff168173ffffffffffffffffffffffffffffffffffffffff1663d30895e46040518163ffffffff1660e01b8152600401602060405180830381865afa15801561023b573d5f803e3d5ffd5b505050506040513d601f19601f8201168201806040525081019061025f91906109c5565b73ffffffffffffffffffffffffffffffffffffffff16036102b5576040517f08c379a00000000000000000000000000000000000000000000000000000000081526004016102ac90610ab2565b60405180910390fd5b8073ffffffffffffffffffffffffffffffffffffffff1663d30895e46040518163ffffffff1660e01b8152600401602060405180830381865afa1580156102fe573d5f803e3d5ffd5b505050506040513d601f19601f8201168201806040525081019061032291906109c5565b73ffffffffffffffffffffffffffffffffffffffff163373ffffffffffffffffffffffffffffffffffffffff160361038f576040517f08c379a000000000000000000000000000000000000000000000000000000000815260040161038690610b1a565b60405180910390fd5b8073ffffffffffffffffffffffffffffffffffffffff16639c3e21ae336040518263ffffffff1660e01b81526004016103c891906108c1565b5f604051808303815f87803b1580156103df575f80fd5b505af11580156103f1573d5f803e3d5ffd5b505050505050565b5f8181548110610407575f80fd5b905f5260205f20015f915054906101000a900473ffffffffffffffffffffffffffffffffffffffff1681565b5f73ffffffffffffffffffffffffffffffffffffffff166104533361053f565b73ffffffffffffffffffffffffffffffffffffffff16146104a9576040517f08c379a00000000000000000000000000000000000000000000000000000000081526004016104a090610b82565b60405180910390fd5b5f336040516104b7906107be565b6104c191906108c1565b604051809103905ff0801580156104da573d5f803e3d5ffd5b5090505f81908060018154018082558091505060019003905f5260205f20015f9091909190916101000a81548173ffffffffffffffffffffffffffffffffffffffff021916908373ffffffffffffffffffffffffffffffffffffffff16021790555050565b5f805f90505b5f8054905081101561072a575f80828154811061056557610564610ba0565b5b905f5260205f20015f9054906101000a900473ffffffffffffffffffffffffffffffffffffffff1690508373ffffffffffffffffffffffffffffffffffffffff168173ffffffffffffffffffffffffffffffffffffffff1663d30895e46040518163ffffffff1660e01b8152600401602060405180830381865afa1580156105ef573d5f803e3d5ffd5b505050506040513d601f19601f8201168201806040525081019061061391906109c5565b73ffffffffffffffffffffffffffffffffffffffff161480156106cd57505f73ffffffffffffffffffffffffffffffffffffffff168173ffffffffffffffffffffffffffffffffffffffff166359a5f12d6040518163ffffffff1660e01b8152600401602060405180830381865afa158015610691573d5f803e3d5ffd5b505050506040513d601f19601f820116820180604052508101906106b591906109c5565b73ffffffffffffffffffffffffffffffffffffffff16145b15610716575f82815481106106e5576106e4610ba0565b5b905f5260205f20015f9054906101000a900473ffffffffffffffffffffffffffffffffffffffff169250505061072f565b50808061072290610bfa565b915050610545565b505f90505b919050565b60605f8054806020026020016040519081016040528092919081815260200182805480156107b457602002820191905f5260205f20905b815f9054906101000a900473ffffffffffffffffffffffffffffffffffffffff1673ffffffffffffffffffffffffffffffffffffffff168152602001906001019080831161076b575b5050505050905090565b6106d380610c4283390190565b5f80fd5b5f73ffffffffffffffffffffffffffffffffffffffff82169050919050565b5f6107f8826107cf565b9050919050565b610808816107ee565b8114610812575f80fd5b50565b5f81359050610823816107ff565b92915050565b5f6020828403121561083e5761083d6107cb565b5b5f61084b84828501610815565b91505092915050565b5f819050919050565b61086681610854565b8114610870575f80fd5b50565b5f813590506108818161085d565b92915050565b5f6020828403121561089c5761089b6107cb565b5b5f6108a984828501610873565b91505092915050565b6108bb816107ee565b82525050565b5f6020820190506108d45f8301846108b2565b92915050565b5f81519050919050565b5f82825260208201905092915050565b5f819050602082019050919050565b61090c816107ee565b82525050565b5f61091d8383610903565b60208301905092915050565b5f602082019050919050565b5f61093f826108da565b61094981856108e4565b9350610954836108f4565b805f5b8381101561098457815161096b8882610912565b975061097683610929565b925050600181019050610957565b5085935050505092915050565b5f6020820190508181035f8301526109a98184610935565b905092915050565b5f815190506109bf816107ff565b92915050565b5f602082840312156109da576109d96107cb565b5b5f6109e7848285016109b1565b91505092915050565b5f82825260208201905092915050565b7f47616d6520616c7265616479206861732074776f20706c61796572732e0000005f82015250565b5f610a34601d836109f0565b9150610a3f82610a00565b602082019050919050565b5f6020820190508181035f830152610a6181610a28565b9050919050565b7f47616d6520646f6573206e6f742065786973742e0000000000000000000000005f82015250565b5f610a9c6014836109f0565b9150610aa782610a68565b602082019050919050565b5f6020820190508181035f830152610ac981610a90565b9050919050565b7f596f752063616e6e6f74206a6f696e20796f7572206f776e2067616d652e00005f82015250565b5f610b04601e836109f0565b9150610b0f82610ad0565b602082019050919050565b5f6020820190508181035f830152610b3181610af8565b9050919050565b7f596f7520616c7265616479206372656174656420612067616d652e00000000005f82015250565b5f610b6c601b836109f0565b9150610b7782610b38565b602082019050919050565b5f6020820190508181035f830152610b9981610b60565b9050919050565b7f4e487b71000000000000000000000000000000000000000000000000000000005f52603260045260245ffd5b7f4e487b71000000000000000000000000000000000000000000000000000000005f52601160045260245ffd5b5f610c0482610854565b91507fffffffffffffffffffffffffffffffffffffffffffffffffffffffffffffffff8203610c3657610c35610bcd565b5b60018201905091905056fe60a060405234801561000f575f80fd5b506040516106d33803806106d3833981810160405281019061003191906100c9565b8073ffffffffffffffffffffffffffffffffffffffff1660808173ffffffffffffffffffffffffffffffffffffffff1681525050506100f4565b5f80fd5b5f73ffffffffffffffffffffffffffffffffffffffff82169050919050565b5f6100988261006f565b9050919050565b6100a88161008e565b81146100b2575f80fd5b50565b5f815190506100c38161009f565b92915050565b5f602082840312156100de576100dd61006b565b5b5f6100eb848285016100b5565b91505092915050565b6080516105c06101135f395f818161018e015261024701526105c05ff3fe608060405234801561000f575f80fd5b506004361061004a575f3560e01c806359a5f12d1461004e5780636995f2c91461006c5780639c3e21ae14610088578063d30895e4146100a4575b5f80fd5b6100566100c2565b60405161006391906102a8565b60405180910390f35b6100866004803603810190610081919061040e565b6100e5565b005b6100a2600480360381019061009d919061047f565b6100e8565b005b6100ac610245565b6040516100b991906102a8565b60405180910390f35b5f8054906101000a900473ffffffffffffffffffffffffffffffffffffffff1681565b50565b5f73ffffffffffffffffffffffffffffffffffffffff165f8054906101000a900473ffffffffffffffffffffffffffffffffffffffff1673ffffffffffffffffffffffffffffffffffffffff1614610175576040517f08c379a000000000000000000000000000000000000000000000000000000000815260040161016c90610504565b60405180910390fd5b8073ffffffffffffffffffffffffffffffffffffffff167f000000000000000000000000000000000000000000000000000000000000000073ffffffffffffffffffffffffffffffffffffffff1603610203576040517f08c379a00000000000000000000000000000000000000000000000000000000081526004016101fa9061056c565b60405180910390fd5b805f806101000a81548173ffffffffffffffffffffffffffffffffffffffff021916908373ffffffffffffffffffffffffffffffffffffffff16021790555050565b7f000000000000000000000000000000000000000000000000000000000000000081565b5f73ffffffffffffffffffffffffffffffffffffffff82169050919050565b5f61029282610269565b9050919050565b6102a281610288565b82525050565b5f6020820190506102bb5f830184610299565b92915050565b5f604051905090565b5f80fd5b5f80fd5b5f80fd5b5f80fd5b5f601f19601f8301169050919050565b7f4e487b71000000000000000000000000000000000000000000000000000000005f52604160045260245ffd5b610320826102da565b810181811067ffffffffffffffff8211171561033f5761033e6102ea565b5b80604052505050565b5f6103516102c1565b905061035d8282610317565b919050565b5f67ffffffffffffffff82111561037c5761037b6102ea565b5b610385826102da565b9050602081019050919050565b828183375f83830152505050565b5f6103b26103ad84610362565b610348565b9050828152602081018484840111156103ce576103cd6102d6565b5b6103d9848285610392565b509392505050565b5f82601f8301126103f5576103f46102d2565b5b81356104058482602086016103a0565b91505092915050565b5f60208284031215610423576104226102ca565b5b5f82013567ffffffffffffffff8111156104405761043f6102ce565b5b61044c848285016103e1565b91505092915050565b61045e81610288565b8114610468575f80fd5b50565b5f8135905061047981610455565b92915050565b5f60208284031215610494576104936102ca565b5b5f6104a18482850161046b565b91505092915050565b5f82825260208201905092915050565b7f47616d6520616c7265616479206861732074776f20706c61796572732e0000005f82015250565b5f6104ee601d836104aa565b91506104f9826104ba565b602082019050919050565b5f6020820190508181035f83015261051b816104e2565b9050919050565b7f596f752063616e6e6f74206a6f696e20796f7572206f776e2067616d652e00005f82015250565b5f610556601e836104aa565b915061056182610522565b602082019050919050565b5f6020820190508181035f8301526105838161054a565b905091905056fea2646970667358221220f990918ab9374e9820b71df03488000787f7cef5c9c4906a1ce47b6c35a10b8364736f6c63430008150033a2646970667358221220e2bf132074c55c227b8da6d6de3c0522903149e3454d579ca10467f6c0189ee464736f6c63430008150033",
  "immutableReferences": {},
  "source": "// SPDX-License-Identifier: MIT\npragma solidity ^0.8.0;\n\nimport './Game.sol';\n\ncontract GameFactory {\n    address[] public deployedGames;\n\n    function createGame() public {\n        require(getGameByPlayer1(msg.sender) == address(0), \"You already created a game.\");\n        address newGame = address(new Game(msg.sender));\n        deployedGames.push(newGame);\n    }\n\n    function joinGame(address _gameAddress) public {\n        Game game = Game(_gameAddress);\n        require(game.player2() == address(0), \"Game already has two players.\");\n        require(game.player1() != address(0), \"Game does not exist.\");\n        require(msg.sender != game.player1(), \"You cannot join your own game.\");\n        game.startGame(msg.sender);\n    }\n\n    function getDeployedGames() public view returns (address[] memory) {\n        return deployedGames;\n    }\n\n    function getGameByPlayer1(address _player1) public view returns (address) {\n        for (uint i = 0; i < deployedGames.length; i++) {\n            Game game = Game(deployedGames[i]);\n            if (game.player1() == _player1 && game.player2() == address(0)) {\n                return deployedGames[i];\n            }\n        }\n        return address(0);\n    }\n}",
  "sourcePath": "/Users/pablomartinez/Documents/Web3/quizzWeb3contracts/contracts/GameFactory.sol",
  "compiler": {
    "name": "solc",
    "version": "0.8.21+commit.d9974bed.Emscripten.clang"
  },
  "schemaVersion": "3.4.16",
  "updatedAt": "2023-09-13T11:45:35.433Z",
  "devdoc": {
    "kind": "dev",
    "methods": {},
    "version": 1
  },
  "userdoc": {
    "kind": "user",
    "methods": {},
    "version": 1
  }
}