{
  "contractName": "GameFactory",
  "abi": [
    {
      "inputs": [
        {
          "internalType": "uint256",
          "name": "",
          "type": "uint256"
        }
      ],
      "name": "deployedGames",
      "outputs": [
        {
          "internalType": "address",
          "name": "",
          "type": "address"
        }
      ],
      "stateMutability": "view",
      "type": "function"
    },
    {
      "inputs": [],
      "name": "createGame",
      "outputs": [],
      "stateMutability": "nonpayable",
      "type": "function"
    },
    {
      "inputs": [
        {
          "internalType": "address",
          "name": "_gameAddress",
          "type": "address"
        }
      ],
      "name": "joinGame",
      "outputs": [],
      "stateMutability": "nonpayable",
      "type": "function"
    },
    {
      "inputs": [],
      "name": "getDeployedGames",
      "outputs": [
        {
          "internalType": "address[]",
          "name": "",
          "type": "address[]"
        }
      ],
      "stateMutability": "view",
      "type": "function"
    },
    {
      "inputs": [],
      "name": "getLastDeployedGame",
      "outputs": [
        {
          "internalType": "address",
          "name": "",
          "type": "address"
        }
      ],
      "stateMutability": "view",
      "type": "function"
    },
    {
      "inputs": [],
      "name": "getCount",
      "outputs": [
        {
          "internalType": "uint256",
          "name": "count",
          "type": "uint256"
        }
      ],
      "stateMutability": "view",
      "type": "function"
    },
    {
      "inputs": [
        {
          "internalType": "address",
          "name": "_player1",
          "type": "address"
        }
      ],
      "name": "getGameByPlayer1",
      "outputs": [
        {
          "internalType": "address",
          "name": "",
          "type": "address"
        }
      ],
      "stateMutability": "view",
      "type": "function"
    }
  ],
  "bytecode": "0x608060405234801561000f575f80fd5b506114ef8061001d5f395ff3fe608060405234801561000f575f80fd5b506004361061007b575f3560e01c8063a87d942c11610059578063a87d942c146100d5578063cdbb3a18146100f3578063d6ac8fd014610111578063eae81c37146101415761007b565b80632389a2901461007f578063657908d11461009b5780637255d729146100cb575b5f80fd5b61009960048036038101906100949190610973565b61015f565b005b6100b560048036038101906100b091906109d1565b61045b565b6040516100c29190610a0b565b60405180910390f35b6100d3610495565b005b6100dd6105e7565b6040516100ea9190610a33565b60405180910390f35b6100fb6105f2565b6040516101089190610a0b565b60405180910390f35b61012b60048036038101906101269190610973565b610689565b6040516101389190610a0b565b60405180910390f35b61014961087e565b6040516101569190610b03565b60405180910390f35b5f8190505f73ffffffffffffffffffffffffffffffffffffffff168173ffffffffffffffffffffffffffffffffffffffff166359a5f12d6040518163ffffffff1660e01b8152600401602060405180830381865afa1580156101c3573d5f803e3d5ffd5b505050506040513d601f19601f820116820180604052508101906101e79190610b37565b73ffffffffffffffffffffffffffffffffffffffff161461023d576040517f08c379a000000000000000000000000000000000000000000000000000000000815260040161023490610bbc565b60405180910390fd5b5f73ffffffffffffffffffffffffffffffffffffffff168173ffffffffffffffffffffffffffffffffffffffff1663d30895e46040518163ffffffff1660e01b8152600401602060405180830381865afa15801561029d573d5f803e3d5ffd5b505050506040513d601f19601f820116820180604052508101906102c19190610b37565b73ffffffffffffffffffffffffffffffffffffffff1603610317576040517f08c379a000000000000000000000000000000000000000000000000000000000815260040161030e90610c24565b60405180910390fd5b8073ffffffffffffffffffffffffffffffffffffffff1663d30895e46040518163ffffffff1660e01b8152600401602060405180830381865afa158015610360573d5f803e3d5ffd5b505050506040513d601f19601f820116820180604052508101906103849190610b37565b73ffffffffffffffffffffffffffffffffffffffff163373ffffffffffffffffffffffffffffffffffffffff16036103f1576040517f08c379a00000000000000000000000000000000000000000000000000000000081526004016103e890610c8c565b60405180910390fd5b8073ffffffffffffffffffffffffffffffffffffffff16639c3e21ae336040518263ffffffff1660e01b815260040161042a9190610a0b565b5f604051808303815f87803b158015610441575f80fd5b505af1158015610453573d5f803e3d5ffd5b505050505050565b5f8181548110610469575f80fd5b905f5260205f20015f915054906101000a900473ffffffffffffffffffffffffffffffffffffffff1681565b5f80805490501115610551575f6104aa6105f2565b90505f73ffffffffffffffffffffffffffffffffffffffff168173ffffffffffffffffffffffffffffffffffffffff166359a5f12d6040518163ffffffff1660e01b8152600401602060405180830381865afa15801561050c573d5f803e3d5ffd5b505050506040513d601f19601f820116820180604052508101906105309190610b37565b73ffffffffffffffffffffffffffffffffffffffff160361054f575f80fd5b505b5f3360405161055f90610908565b6105699190610a0b565b604051809103905ff080158015610582573d5f803e3d5ffd5b5090505f81908060018154018082558091505060019003905f5260205f20015f9091909190916101000a81548173ffffffffffffffffffffffffffffffffffffffff021916908373ffffffffffffffffffffffffffffffffffffffff16021790555050565b5f8080549050905090565b5f805f8054905011610639576040517f08c379a000000000000000000000000000000000000000000000000000000000815260040161063090610cf4565b60405180910390fd5b5f60015f8054905061064b9190610d3f565b8154811061065c5761065b610d72565b5b905f5260205f20015f9054906101000a900473ffffffffffffffffffffffffffffffffffffffff16905090565b5f805f90505b5f80549050811015610874575f8082815481106106af576106ae610d72565b5b905f5260205f20015f9054906101000a900473ffffffffffffffffffffffffffffffffffffffff1690508373ffffffffffffffffffffffffffffffffffffffff168173ffffffffffffffffffffffffffffffffffffffff1663d30895e46040518163ffffffff1660e01b8152600401602060405180830381865afa158015610739573d5f803e3d5ffd5b505050506040513d601f19601f8201168201806040525081019061075d9190610b37565b73ffffffffffffffffffffffffffffffffffffffff1614801561081757505f73ffffffffffffffffffffffffffffffffffffffff168173ffffffffffffffffffffffffffffffffffffffff166359a5f12d6040518163ffffffff1660e01b8152600401602060405180830381865afa1580156107db573d5f803e3d5ffd5b505050506040513d601f19601f820116820180604052508101906107ff9190610b37565b73ffffffffffffffffffffffffffffffffffffffff16145b15610860575f828154811061082f5761082e610d72565b5b905f5260205f20015f9054906101000a900473ffffffffffffffffffffffffffffffffffffffff1692505050610879565b50808061086c90610d9f565b91505061068f565b505f90505b919050565b60605f8054806020026020016040519081016040528092919081815260200182805480156108fe57602002820191905f5260205f20905b815f9054906101000a900473ffffffffffffffffffffffffffffffffffffffff1673ffffffffffffffffffffffffffffffffffffffff16815260200190600101908083116108b5575b5050505050905090565b6106d380610de783390190565b5f80fd5b5f73ffffffffffffffffffffffffffffffffffffffff82169050919050565b5f61094282610919565b9050919050565b61095281610938565b811461095c575f80fd5b50565b5f8135905061096d81610949565b92915050565b5f6020828403121561098857610987610915565b5b5f6109958482850161095f565b91505092915050565b5f819050919050565b6109b08161099e565b81146109ba575f80fd5b50565b5f813590506109cb816109a7565b92915050565b5f602082840312156109e6576109e5610915565b5b5f6109f3848285016109bd565b91505092915050565b610a0581610938565b82525050565b5f602082019050610a1e5f8301846109fc565b92915050565b610a2d8161099e565b82525050565b5f602082019050610a465f830184610a24565b92915050565b5f81519050919050565b5f82825260208201905092915050565b5f819050602082019050919050565b610a7e81610938565b82525050565b5f610a8f8383610a75565b60208301905092915050565b5f602082019050919050565b5f610ab182610a4c565b610abb8185610a56565b9350610ac683610a66565b805f5b83811015610af6578151610add8882610a84565b9750610ae883610a9b565b925050600181019050610ac9565b5085935050505092915050565b5f6020820190508181035f830152610b1b8184610aa7565b905092915050565b5f81519050610b3181610949565b92915050565b5f60208284031215610b4c57610b4b610915565b5b5f610b5984828501610b23565b91505092915050565b5f82825260208201905092915050565b7f47616d6520616c7265616479206861732074776f20706c61796572732e0000005f82015250565b5f610ba6601d83610b62565b9150610bb182610b72565b602082019050919050565b5f6020820190508181035f830152610bd381610b9a565b9050919050565b7f47616d6520646f6573206e6f742065786973742e0000000000000000000000005f82015250565b5f610c0e601483610b62565b9150610c1982610bda565b602082019050919050565b5f6020820190508181035f830152610c3b81610c02565b9050919050565b7f596f752063616e6e6f74206a6f696e20796f7572206f776e2067616d652e00005f82015250565b5f610c76601e83610b62565b9150610c8182610c42565b602082019050919050565b5f6020820190508181035f830152610ca381610c6a565b9050919050565b7f54686520617272617920697320656d70747900000000000000000000000000005f82015250565b5f610cde601283610b62565b9150610ce982610caa565b602082019050919050565b5f6020820190508181035f830152610d0b81610cd2565b9050919050565b7f4e487b71000000000000000000000000000000000000000000000000000000005f52601160045260245ffd5b5f610d498261099e565b9150610d548361099e565b9250828203905081811115610d6c57610d6b610d12565b5b92915050565b7f4e487b71000000000000000000000000000000000000000000000000000000005f52603260045260245ffd5b5f610da98261099e565b91507fffffffffffffffffffffffffffffffffffffffffffffffffffffffffffffffff8203610ddb57610dda610d12565b5b60018201905091905056fe60a060405234801561000f575f80fd5b506040516106d33803806106d3833981810160405281019061003191906100c9565b8073ffffffffffffffffffffffffffffffffffffffff1660808173ffffffffffffffffffffffffffffffffffffffff1681525050506100f4565b5f80fd5b5f73ffffffffffffffffffffffffffffffffffffffff82169050919050565b5f6100988261006f565b9050919050565b6100a88161008e565b81146100b2575f80fd5b50565b5f815190506100c38161009f565b92915050565b5f602082840312156100de576100dd61006b565b5b5f6100eb848285016100b5565b91505092915050565b6080516105c06101135f395f818161018e015261024701526105c05ff3fe608060405234801561000f575f80fd5b506004361061004a575f3560e01c806359a5f12d1461004e5780636995f2c91461006c5780639c3e21ae14610088578063d30895e4146100a4575b5f80fd5b6100566100c2565b60405161006391906102a8565b60405180910390f35b6100866004803603810190610081919061040e565b6100e5565b005b6100a2600480360381019061009d919061047f565b6100e8565b005b6100ac610245565b6040516100b991906102a8565b60405180910390f35b5f8054906101000a900473ffffffffffffffffffffffffffffffffffffffff1681565b50565b5f73ffffffffffffffffffffffffffffffffffffffff165f8054906101000a900473ffffffffffffffffffffffffffffffffffffffff1673ffffffffffffffffffffffffffffffffffffffff1614610175576040517f08c379a000000000000000000000000000000000000000000000000000000000815260040161016c90610504565b60405180910390fd5b8073ffffffffffffffffffffffffffffffffffffffff167f000000000000000000000000000000000000000000000000000000000000000073ffffffffffffffffffffffffffffffffffffffff1603610203576040517f08c379a00000000000000000000000000000000000000000000000000000000081526004016101fa9061056c565b60405180910390fd5b805f806101000a81548173ffffffffffffffffffffffffffffffffffffffff021916908373ffffffffffffffffffffffffffffffffffffffff16021790555050565b7f000000000000000000000000000000000000000000000000000000000000000081565b5f73ffffffffffffffffffffffffffffffffffffffff82169050919050565b5f61029282610269565b9050919050565b6102a281610288565b82525050565b5f6020820190506102bb5f830184610299565b92915050565b5f604051905090565b5f80fd5b5f80fd5b5f80fd5b5f80fd5b5f601f19601f8301169050919050565b7f4e487b71000000000000000000000000000000000000000000000000000000005f52604160045260245ffd5b610320826102da565b810181811067ffffffffffffffff8211171561033f5761033e6102ea565b5b80604052505050565b5f6103516102c1565b905061035d8282610317565b919050565b5f67ffffffffffffffff82111561037c5761037b6102ea565b5b610385826102da565b9050602081019050919050565b828183375f83830152505050565b5f6103b26103ad84610362565b610348565b9050828152602081018484840111156103ce576103cd6102d6565b5b6103d9848285610392565b509392505050565b5f82601f8301126103f5576103f46102d2565b5b81356104058482602086016103a0565b91505092915050565b5f60208284031215610423576104226102ca565b5b5f82013567ffffffffffffffff8111156104405761043f6102ce565b5b61044c848285016103e1565b91505092915050565b61045e81610288565b8114610468575f80fd5b50565b5f8135905061047981610455565b92915050565b5f60208284031215610494576104936102ca565b5b5f6104a18482850161046b565b91505092915050565b5f82825260208201905092915050565b7f47616d6520616c7265616479206861732074776f20706c61796572732e0000005f82015250565b5f6104ee601d836104aa565b91506104f9826104ba565b602082019050919050565b5f6020820190508181035f83015261051b816104e2565b9050919050565b7f596f752063616e6e6f74206a6f696e20796f7572206f776e2067616d652e00005f82015250565b5f610556601e836104aa565b915061056182610522565b602082019050919050565b5f6020820190508181035f8301526105838161054a565b905091905056fea2646970667358221220f990918ab9374e9820b71df03488000787f7cef5c9c4906a1ce47b6c35a10b8364736f6c63430008150033a26469706673582212201234fa3d6ddd834632a512bc6c03ec161a5c35970096a061658a0a63cd2a77bb64736f6c63430008150033",
  "immutableReferences": {},
  "source": "// SPDX-License-Identifier: MIT\npragma solidity ^0.8.0;\n\nimport './Game.sol';\n\ncontract GameFactory {\n    address[] public deployedGames;\n\n    function createGame() public {\n        //require(getGameByPlayer1(msg.sender) == address(0), \"You already created a game.\");\n        if (deployedGames.length > 0) {\n            address lastDeployed = getLastDeployedGame();\n            require(Game(lastDeployed).player2() != address(0));\n        }\n        address newGame = address(new Game(msg.sender));\n        deployedGames.push(newGame);\n    }\n\n    function joinGame(address _gameAddress) public {\n        Game game = Game(_gameAddress);\n        require(game.player2() == address(0), \"Game already has two players.\");\n        require(game.player1() != address(0), \"Game does not exist.\");\n        require(msg.sender != game.player1(), \"You cannot join your own game.\");\n        game.startGame(msg.sender);\n    }\n\n    function getDeployedGames() public view returns (address[] memory) {\n        return deployedGames;\n    }\n\n    // Function to get the last played game\n    function getLastDeployedGame() public view returns (address) {\n        require(deployedGames.length > 0, \"The array is empty\");\n        return deployedGames[deployedGames.length - 1];\n    }\n\n    function getCount() public view returns(uint count) {\n    return deployedGames.length;\n}\n\n    function getGameByPlayer1(address _player1) public view returns (address) {\n        for (uint i = 0; i < deployedGames.length; i++) {\n            Game game = Game(deployedGames[i]);\n            if (game.player1() == _player1 && game.player2() == address(0)) {\n                return deployedGames[i];\n            }\n        }\n        return address(0);\n    }\n}",
  "sourcePath": "/Users/pablomartinez/Documents/Web3/quizzWeb3contracts/contracts/GameFactory.sol",
  "compiler": {
    "name": "solc",
    "version": "0.8.21+commit.d9974bed.Emscripten.clang"
  },
  "schemaVersion": "3.4.16",
  "updatedAt": "2023-09-16T11:32:40.504Z",
  "devdoc": {
    "kind": "dev",
    "methods": {},
    "version": 1
  },
  "userdoc": {
    "kind": "user",
    "methods": {},
    "version": 1
  }
}