{
  "contractName": "Game",
  "abi": [
    {
      "inputs": [
        {
          "internalType": "address",
          "name": "_player1",
          "type": "address"
        }
      ],
      "stateMutability": "nonpayable",
      "type": "constructor"
    },
    {
      "inputs": [],
      "name": "player1",
      "outputs": [
        {
          "internalType": "address",
          "name": "",
          "type": "address"
        }
      ],
      "stateMutability": "view",
      "type": "function"
    },
    {
      "inputs": [],
      "name": "player2",
      "outputs": [
        {
          "internalType": "address",
          "name": "",
          "type": "address"
        }
      ],
      "stateMutability": "view",
      "type": "function"
    },
    {
      "inputs": [
        {
          "internalType": "address",
          "name": "_player2",
          "type": "address"
        }
      ],
      "name": "startGame",
      "outputs": [],
      "stateMutability": "nonpayable",
      "type": "function"
    },
    {
      "inputs": [
        {
          "internalType": "string",
          "name": "_playerAnswer",
          "type": "string"
        }
      ],
      "name": "answerQuestion",
      "outputs": [],
      "stateMutability": "nonpayable",
      "type": "function"
    }
  ],
  "bytecode": "0x60a060405234801561000f575f80fd5b506040516106d33803806106d3833981810160405281019061003191906100c9565b8073ffffffffffffffffffffffffffffffffffffffff1660808173ffffffffffffffffffffffffffffffffffffffff1681525050506100f4565b5f80fd5b5f73ffffffffffffffffffffffffffffffffffffffff82169050919050565b5f6100988261006f565b9050919050565b6100a88161008e565b81146100b2575f80fd5b50565b5f815190506100c38161009f565b92915050565b5f602082840312156100de576100dd61006b565b5b5f6100eb848285016100b5565b91505092915050565b6080516105c06101135f395f818161018e015261024701526105c05ff3fe608060405234801561000f575f80fd5b506004361061004a575f3560e01c806359a5f12d1461004e5780636995f2c91461006c5780639c3e21ae14610088578063d30895e4146100a4575b5f80fd5b6100566100c2565b60405161006391906102a8565b60405180910390f35b6100866004803603810190610081919061040e565b6100e5565b005b6100a2600480360381019061009d919061047f565b6100e8565b005b6100ac610245565b6040516100b991906102a8565b60405180910390f35b5f8054906101000a900473ffffffffffffffffffffffffffffffffffffffff1681565b50565b5f73ffffffffffffffffffffffffffffffffffffffff165f8054906101000a900473ffffffffffffffffffffffffffffffffffffffff1673ffffffffffffffffffffffffffffffffffffffff1614610175576040517f08c379a000000000000000000000000000000000000000000000000000000000815260040161016c90610504565b60405180910390fd5b8073ffffffffffffffffffffffffffffffffffffffff167f000000000000000000000000000000000000000000000000000000000000000073ffffffffffffffffffffffffffffffffffffffff1603610203576040517f08c379a00000000000000000000000000000000000000000000000000000000081526004016101fa9061056c565b60405180910390fd5b805f806101000a81548173ffffffffffffffffffffffffffffffffffffffff021916908373ffffffffffffffffffffffffffffffffffffffff16021790555050565b7f000000000000000000000000000000000000000000000000000000000000000081565b5f73ffffffffffffffffffffffffffffffffffffffff82169050919050565b5f61029282610269565b9050919050565b6102a281610288565b82525050565b5f6020820190506102bb5f830184610299565b92915050565b5f604051905090565b5f80fd5b5f80fd5b5f80fd5b5f80fd5b5f601f19601f8301169050919050565b7f4e487b71000000000000000000000000000000000000000000000000000000005f52604160045260245ffd5b610320826102da565b810181811067ffffffffffffffff8211171561033f5761033e6102ea565b5b80604052505050565b5f6103516102c1565b905061035d8282610317565b919050565b5f67ffffffffffffffff82111561037c5761037b6102ea565b5b610385826102da565b9050602081019050919050565b828183375f83830152505050565b5f6103b26103ad84610362565b610348565b9050828152602081018484840111156103ce576103cd6102d6565b5b6103d9848285610392565b509392505050565b5f82601f8301126103f5576103f46102d2565b5b81356104058482602086016103a0565b91505092915050565b5f60208284031215610423576104226102ca565b5b5f82013567ffffffffffffffff8111156104405761043f6102ce565b5b61044c848285016103e1565b91505092915050565b61045e81610288565b8114610468575f80fd5b50565b5f8135905061047981610455565b92915050565b5f60208284031215610494576104936102ca565b5b5f6104a18482850161046b565b91505092915050565b5f82825260208201905092915050565b7f47616d6520616c7265616479206861732074776f20706c61796572732e0000005f82015250565b5f6104ee601d836104aa565b91506104f9826104ba565b602082019050919050565b5f6020820190508181035f83015261051b816104e2565b9050919050565b7f596f752063616e6e6f74206a6f696e20796f7572206f776e2067616d652e00005f82015250565b5f610556601e836104aa565b915061056182610522565b602082019050919050565b5f6020820190508181035f8301526105838161054a565b905091905056fea2646970667358221220f990918ab9374e9820b71df03488000787f7cef5c9c4906a1ce47b6c35a10b8364736f6c63430008150033",
  "immutableReferences": {
    "3": [
      {
        "length": 32,
        "start": 398
      },
      {
        "length": 32,
        "start": 583
      }
    ]
  },
  "source": "// SPDX-License-Identifier: UNLICENSED\npragma solidity ^0.8.13;\n\ncontract Game {\n     address public immutable player1;\n     address public player2;\n\n    constructor(address _player1) {\n        player1 = _player1;\n    }\n\n    function startGame(address _player2) external {\n        require(player2 == address(0), \"Game already has two players.\");\n        require(player1 != _player2, \"You cannot join your own game.\");\n        player2 = _player2;\n        // Initialize game state here.\n    }\n\n    function answerQuestion(string memory _playerAnswer) external {\n        // Game logic for answering questions.\n    }\n}",
  "sourcePath": "/Users/pablomartinez/Documents/Web3/quizzWeb3contracts/contracts/Game.sol",
  "compiler": {
    "name": "solc",
    "version": "0.8.21+commit.d9974bed.Emscripten.clang"
  },
  "schemaVersion": "3.4.16",
  "updatedAt": "2023-09-13T11:45:35.432Z",
  "devdoc": {
    "kind": "dev",
    "methods": {},
    "version": 1
  },
  "userdoc": {
    "kind": "user",
    "methods": {},
    "version": 1
  }
}